:020000040800F2
:1000000000500020892200084D18000855180008EB
:100010005D180008651800086D1800080000000051
:10002000000000000000000000000000751800083B
:1000300081180008000000008D18000899180008B9
:10004000D1220008D1220008D1220008D1220008C4
:10005000D1220008D1220008D1220008D1220008B4
:10006000D1220008D1220008D1220008D1220008A4
:10007000D1220008D1220008D1220008D122000894
:10008000D1220008D1220008D1220008D122000884
:10009000D1220008D1220008D1220008D122000874
:1000A000D1220008D1220008D1220008D122000864
:1000B000D1220008D1220008D1220008D122000854
:1000C000D1220008D1220008D1220008D122000844
:1000D000D1220008D1220008A5180008D12200086A
:1000E000D1220008D1220008D1220008000000001F
:1000F0000000000000000000000000000000000000
:0C01000000000000000000005FF808F1A3
:10010C0010B5054C237833B9044B13B10448AFF345
:10011C0000800123237010BD180000200000000097
:10012C001048000808B5034B1BB103490348AFF353
:10013C00008008BD000000001C00002010480008D2
:10014C0080F0004002E000BF81F0004142001FBF80
:10015C005FEA410392EA030F7FEA226C7FEA236C89
:10016C006AD04FEA1262D2EB1363C1BFD21841407E
:10017C0048404140B8BF5B42192B88BF704710F014
:10018C00004F40F4000020F07F4018BF404211F0B7
:10019C00004F41F4000121F07F4118BF494292EA1F
:1001AC00030F3FD0A2F1010241FA03FC10EB0C004B
:1001BC00C3F1200301FA03F100F0004302D54942D8
:1001CC0060EB4000B0F5000F13D3B0F1807F06D385
:1001DC0040084FEA310102F10102FE2A51D2B1F17D
:1001EC00004F40EBC25008BF20F0010040EA030072
:1001FC007047490040EB0000013A28BFB0F5000FF2
:10020C00EDD2B0FA80FCACF1080CB2EB0C0200FAA7
:10021C000CF0AABF00EBC25052421843BCBFD040F6
:10022C001843704792F0000F81F4000106BF80F470
:10023C0000000132013BB5E74FEA41037FEA226C33
:10024C0018BF7FEA236C21D092EA030F04D092F0FE
:10025C00000F08BF0846704790EA010F1CBF002032
:10026C00704712F07F4F04D1400028BF40F000408F
:10027C00704712F100723CBF00F50000704700F0AF
:10028C00004343F0FE4040F4000070477FEA2262D6
:10029C0016BF08467FEA23630146420206BF5FEAA7
:1002AC00412390EA010F40F4800070474FF00003A7
:1002BC0004E000BF10F0004348BF40425FEA000C6E
:1002CC0008BF704743F0964301464FF000001CE016
:1002DC0050EA010208BF70474FF000030AE000BF6C
:1002EC0050EA010208BF704711F0004302D54042AA
:1002FC0061EB41015FEA010C02BF8446014600201C
:10030C0043F0B64308BFA3F18053A3F50003BCFA36
:10031C008CF2083AA3EBC25310DB01FA02FC6344E3
:10032C0000FA02FCC2F12002BCF1004F20FA02F2EA
:10033C0043EB020008BF20F00100704702F12002DD
:10034C0001FA02FCC2F1200250EA4C0021FA02F23E
:10035C0043EB020008BF20EADC7070474FF0FF0C43
:10036C001CEAD0521EBF1CEAD15392EA0C0F93EA3E
:10037C000C0F6FD01A4480EA010C400218BF5FEAE0
:10038C0041211ED04FF0006343EA501043EA511153
:10039C00A0FB01310CF00040B1F5000F3EBF49004D
:1003AC0041EAD3715B0040EA010062F17F02FD2A51
:1003BC001DD8B3F1004F40EBC25008BF20F0010034
:1003CC00704790F0000F0CF0004C08BF49024CEA4B
:1003DC00502040EA51207F3AC2BFD2F1FF0340EADD
:1003EC00C250704740F400004FF00003013A5DDC4E
:1003FC0012F1190FDCBF00F000407047C2F100028F
:10040C00410021FA02F1C2F1200200FA02FC5FEA7B
:10041C00310040F1000053EA4C0308BF20EADC70C5
:10042C00704792F0000F00F0004C02BF400010F437
:10043C00000F013AF9D040EA0C0093F0000F01F0E4
:10044C00004C02BF490011F4000F013BF9D041EA06
:10045C000C018FE70CEAD15392EA0C0F18BF93EA08
:10046C000C0F0AD030F0004C18BF31F0004CD8D132
:10047C0080EA010000F00040704790F0000F17BFB9
:10048C0090F0004F084691F0000F91F0004F14D0FF
:10049C0092EA0C0F01D142020FD193EA0C0F03D157
:1004AC004B0218BF084608D180EA010000F000405A
:1004BC0040F0FE4040F40000704740F0FE4040F435
:1004CC00400070474FF0FF0C1CEAD0521EBF1CEAD4
:1004DC00D15392EA0C0F93EA0C0F69D0A2EB0302F2
:1004EC0080EA010C49024FEA402037D04FF080538C
:1004FC0043EA111143EA10130CF000408B4238BF51
:10050C005B0042F17D024FF4000C8B4224BF5B1A5E
:10051C0040EA0C00B3EB510F24BFA3EB510340EAAC
:10052C005C00B3EB910F24BFA3EB910340EA9C005A
:10053C00B3EBD10F24BFA3EBD10340EADC001B01CA
:10054C0018BF5FEA1C1CE0D1FD2A3FF650AF8B426E
:10055C0040EBC25008BF20F0010070470CF0004C7B
:10056C004CEA50207F32C2BFD2F1FF0340EAC250A6
:10057C00704740F400004FF00003013A37E792F067
:10058C00000F00F0004C02BF400010F4000F013AC5
:10059C00F9D040EA0C0093F0000F01F0004C02BFC0
:1005AC00490011F4000F013BF9D041EA0C0195E729
:1005BC000CEAD15392EA0C0F08D142027FF47DAFC2
:1005CC0093EA0C0F7FF470AF084676E793EA0C0FB2
:1005DC0004D14B023FF44CAF08466EE730F0004CB0
:1005EC0018BF31F0004CCAD130F000427FF45CAF40
:1005FC0031F000437FF43CAF5FE700BF4FF0FF3CAE
:10060C0006E000BF4FF0010C02E000BF4FF0010C00
:10061C004DF804CD4FEA40024FEA41037FEA226CC9
:10062C0018BF7FEA236C11D001B052EA530C18BFEB
:10063C0090EA010F58BFB2EB030088BFC81738BF50
:10064C006FEAE17018BF40F0010070477FEA226C3E
:10065C0002D15FEA402C05D17FEA236CE4D15FEA3A
:10066C00412CE1D05DF8040B704700BF844608466E
:10067C006146FFE70FB5FFF7C9FF002848BF10F12F
:10068C00000F0FBD4DF808EDFFF7F4FF0CBF012074
:10069C0000205DF808FB00BF4DF808EDFFF7EAFFFE
:1006AC0034BF012000205DF808FB00BF4DF808EDB9
:1006BC00FFF7E0FF94BF012000205DF808FB00BFAE
:1006CC004DF808EDFFF7D2FF94BF012000205DF834
:1006DC0008FB00BF4DF808EDFFF7C8FF34BF012041
:1006EC0000205DF808FB00BF42000ED2B2F1FE4FB5
:1006FC000BD34FF09E03B3EB126209D44FEA0023E5
:10070C0043F0004323FA02F070474FF000007047AB
:10071C0012F1610F01D1420202D14FF0FF3070474C
:10072C004FF00000704700BF80B582B000AF78601A
:10073C00786801F02BF800BF0837BD4680BD80B546
:10074C0084B000AFF860B9607A60B968F868FFF7F8
:10075C00A3FF0346002B01D0BB6809E07968F86859
:10076C00FFF7B8FF0346002B01D07B6800E0FB6865
:10077C0018461037BD4680BD80B582B000AF78609A
:10078C007B68002B01D1012339E07B681B681E4973
:10079C001846FFF781FF0346002B2ED07B681B68A1
:1007AC001A491846FFF796FF0346002B25D07B68A5
:1007BC005B6815491846FFF76FFF0346002B1CD0EA
:1007CC007B685B6811491846FFF784FF0346002BD2
:1007DC0013D07B689B680C491846FFF75DFF0346F6
:1007EC00002B0AD07B689B6808491846FFF772FFFC
:1007FC000346002B01D0012300E00023DBB2184696
:10080C000837BD4680BD00BF6F12833A6F1283BAA2
:10081C0080B500AF00F0ECFD01F0C2F9124B4FF0C7
:10082C0000021A60104B4FF000025A600E4B4FF052
:10083C0000029A6001F0A0FD03460C4A136001F01F
:10084C009BFD03460A4A136001F096FD0346094AD4
:10085C001360094B00221A70012000F01FFE074B99
:10086C0001221A7000BF80BD380000205400002007
:10087C00580000205C0000206000002034000020A4
:10088C0080B582B000AF78607B68002B02D16FF02E
:10089C00030332E01B4B00221A707B681B681A4A58
:1008AC001A491846FFF74BFF0346194A13607B6839
:1008BC005B68154A15491846FFF741FF0346144A71
:1008CC0053607B689B684FF07F5212491846FFF7C4
:1008DC0036FF03460E4A936001F04EFD03460E4A66
:1008EC0013600B48FFF748FF0346002B01D0012291
:1008FC0000E00222094B1A70002318460837BD4647
:10090C0080BD00BF600000209A99193F9A9919BFC9
:10091C00380000200000C0BF54000020340000202C
:10092C0080B500AF064B00221A7001F0A1F901202E
:10093C0000F0B4FD034B01221A700023184680BD51
:10094C00600000203400002080B500AF01F090F969
:10095C00012000F0A3FD034B01221A70002318465E
:10096C0080BD00BF3400002090B593B000AF01F003
:10097C0003FD7864364B1B78002B02D0344B0022DD
:10098C001A70344B1B78052B03D0324B1B78042B7D
:10099C0002D1304B01221A702F4B1B687A6CD31A80
:1009AC00312B04D92C4A7B6C136000F017FE2B4BB7
:1009BC001B687A6CD31A132B46D9284B1B687A6C9C
:1009CC00D31A1846FFF772FC034625491846FFF761
:1009DC00C5FC03463B64214A7B6C13603B463A6C76
:1009EC002049184601F008FA07F114033A4607CAE1
:1009FC0083E8070007F1200207F1300107F1140327
:100A0C00184600F063F907F120033A6C16491846B2
:100A1C0000F0F4F907F12003184600F083FD124BA7
:100A2C001C4607F120030FCB84E80F000D48FFF79D
:100A3C00A3FE0346002B03D0064B01221A7004E0E0
:100A4C00044B02221A7000E000BF4C37BD4690BD2B
:100A5C0060000020340000205C00002058000020C2
:100A6C006F12833A380000204400002080B483B019
:100A7C0000AF0346FB71044AFB79137000BF0C37BF
:100A8C00BD4680BC704700BF6000002080B582B0BE
:100A9C0000AF0346FB71FB79184601F0C9F800BFA3
:100AAC000837BD4680BD000080B483B000AF0E4B4C
:100ABC009B690D4A43F0040393610B4B9B6903F054
:100ACC0004037B607B68084B9B69074A43F008036F
:100ADC009361054B9B6903F008033B603B6800BFC7
:100AEC000C37BD4680BC70470010024080B500AF8B
:100AFC0001F0EAFB00F014F8FFF7D6FF01F084FADE
:100B0C00064800F057F803F087FD03F017FE00F0DD
:100B1C0082F80A2001F03AFC00BFF6E75C010020E5
:100B2C0080B590B000AF07F11803282200211846B9
:100B3C0003F03CFE3B1D00221A605A609A60DA609A
:100B4C001A610223BB610123BB621023FB620023E9
:100B5C007B6307F11803184601F080FF0346002B56
:100B6C0001D000F021F80F237B600023BB60002331
:100B7C00FB6000233B6100237B613B1D0021184679
:100B8C0002F0EEF90346002B01D000F00DF800BF87
:100B9C004037BD4680BD80B483B000AF786000BFE5
:100BAC000C37BD4680BC704780B400AF72B600BF36
:100BBC0000BFFDE780B582B000AF7860786800F0C8
:100BCC0011FAFFF725FE00BF0837BD4680BD80B582
:100BDC0088B000AFF860B9607A60FB687B61BB6875
:100BEC00BB617B68FB6107F114031846FFF748FEF5
:100BFC00034618462037BD4680BD80B500AFFFF7D1
:100C0C008FFE0346184680BD80B500AFFFF79CFEF3
:100C1C000346184680BD80B500AFFFF7A5FE00BFA8
:100C2C0080BD80B582B000AF0346FB71FB791846DE
:100C3C00FFF72CFF00BF0837BD4680BD80B582B0E2
:100C4C0000AF78604FF000017868FFF739FD03467C
:100C5C00002B01D07B6802E07B6883F000431846D0
:100C6C000837BD4680BD80B584B000AFF860B96070
:100C7C007A60B968F868FFF70FFD0346002B01D0C6
:100C8C00BB6809E07968F868FFF724FD0346002B80
:100C9C0001D07B6800E0FB6818461037BD4680BD6C
:100CAC0080B582B000AF786006497868FFF70AFC1F
:100CBC00034605491846FFF751FB0346184608370B
:100CCC00BD4680BD3B46713E0000704290B587B07A
:100CDC0000AFF860B9607A60FB68002B00F0878089
:100CEC00BB68002B00F083807B68002B7FD0FB68F7
:100CFC009B687B61FB685A68FB681B681946104649
:100D0C00FFF722FA03461C463B497869FFF726FB9E
:100D1C00034619462046FFF717FA03461A46BB68E6
:100D2C001A60FB685A68FB681B6819461046FFF787
:100D3C000DFA03461C4630497869FFF70FFB034652
:100D4C0019462046FFF702FA03461A46BB685A605A
:100D5C00FB685A68FB681B6819461046FFF7F6F9E2
:100D6C0003461C4624497869FFF7F8FA03461946EE
:100D7C002046FFF7E9F903461A46BB689A60FB6800
:100D8C005A68FB681B6819461046FFF7DDF90346E5
:100D9C001C4619497869FFF7E1FA034619462046C3
:100DAC00FFF7D4F903461A46BB68DA60BB681B68C8
:100DBC001846FFF775FF02467B681A60BB685B68D4
:100DCC001846FFF76DFF02467B685A60BB689B684C
:100DDC001846FFF765FF02467B689A60BB68DB68C4
:100DEC001846FFF75DFF02467B68DA6000E000BF43
:100DFC001C37BD4690BD00BF703D8A3E90B58DB08E
:100E0C0000AFF860B9607A604FF00003FB624FF0FE
:100E1C007E537B62FB68002B00F08E80002387F8EA
:100E2C002B3016E097F82B20FB6853F8223018462D
:100E3C00FFF704FF7861F96A7869FFF74BFC03460A
:100E4C00002B01D07B69FB6297F82B30013387F8BC
:100E5C002B3097F82B30032BE4D93A49F86AFFF77B
:100E6C0039FC0346002B22D0F96A3648FFF72AFBDF
:100E7C0003467B62002387F82B3014E097F82B2075
:100E8C00FB6853F8223097F82B40796A1846FFF725
:100E9C0065FA03461A46FB6843F8242097F82B3072
:100EAC00013387F82B3097F82B30032BE6D9BB682E
:100EBC00002B43D04FF000017868FFF7F7FB034697
:100ECC00002B3BD120497868FFF748FA03463B6278
:100EDC00002387F82B302AE097F82B20BB6853F8B7
:100EEC002230396A1846FFF72FF90346FB6197F851
:100EFC002B20BB6853F822301946386AFFF726F9C5
:100F0C000346BB6197F82B20FB6853F8223097F807
:100F1C002B40BA69F9691846FFF7A5FE0246FB6833
:100F2C0043F8242097F82B30013387F82B3097F8AF
:100F3C002B30032BD0D902E000BF00E000BF3437C8
:100F4C00BD4690BD0000FA430000FA4480B584B061
:100F5C0000AF7860104B5B68FB6002F03FF9034612
:100F6C000E4AA2FB03239A0C7B6802FB03F3BB60C3
:100F7C00094B1B6803F00103002B08D000BF064B84
:100F8C005A68FB68D31ABA689A42F8D800E000BFD6
:100F9C001037BD4680BD00BF001000E083DE1B4350
:100FAC0080B400AF074BDB68064A43F08073D36014
:100FBC00054B1B68044A43F00103136000BFBD4698
:100FCC0080BC7047F0ED00E0001000E080B400AF92
:100FDC0000BFBD4680BC704780B400AF00BFBD46AB
:100FEC0080BC704780B582B000AF7860064A7B68E1
:100FFC001360064B00221A70FFF7D2FFFFF7E6FFD3
:10100C0000BF0837BD4680BD64000020680000208A
:10101C0080B485B000AF78600B467B804FF6FF73D1
:10102C00FB810023BB8122E0BB897A6813441B78C7
:10103C001A46FB895340FB810023FB7211E0FB89AC
:10104C0003F00103002B06D0FB895B089AB20D4B11
:10105C005340FB8102E0FB895B08FB81FB7A013387
:10106C00FB72FB7A072BEAD9BB890133BB81BA89A6
:10107C007B889A42D8D3FB8918461437BD4680BC6E
:10108C00704700BF01A0FFFF80B584B000AF78604F
:10109C000B467B80244B1B68002B05D07B68002BF8
:1010AC0002D07B88002B02D16FF0030337E01F4B7B
:1010BC001B78002B02D06FF0010330E01B4B012298
:1010CC001A70FFF783FF022001F060F9FFF784FF2D
:1010DC001420FFF73BFF144B18687A880A237968B1
:1010EC0002F01CF90346FB73FB7B002B08D100BFFD
:1010FC000D4B1B681B681B6803F04003402BF7D19A
:10110C001420FFF723FFFFF761FF084B00221A7032
:10111C00FB7B002B01D1002301E04FF0FF3318467D
:10112C001037BD4680BD00BF640000206800002061
:10113C0080B586B000AFF8607A601A460B467B81AA
:10114C0013463B817B68002B05D03B6A002B02D0F9
:10115C003B89042B02D86FF003035CE03B6A00224E
:10116C001A807B891946F868FFF78EFF0346FB75DA
:10117C0097F91730002B02D097F917304BE0284B1A
:10118C0002221A703B891A460021786803F00EFB84
:10119C00244B18683A897B6A796802F04AF903464D
:1011AC00BB75BB7D002B05D01D4B00221A706FF058
:1011BC00020330E03B6A3A891A803B89023B9BB2BE
:1011CC0019467868FFF724FF0346BB823B89023B34
:1011DC007A6813441B781AB23B89013B79680B443B
:1011EC001B781BB21B021BB213431BB27B820C4B32
:1011FC0000221A70BA8A7B8A9A4202D06FF00403DA
:10120C0009E07B6801331B785BB2002B02DA4FF0EC
:10121C00FF3300E0002318461837BD4680BD00BFE1
:10122C00680000206400002080B59CB002AFBA605A
:10123C001A460346FB730B46BB811346FB80002307
:10124C00A7F86630BB68002B05D0FB88002B02D0BA
:10125C00FB88142B02D96FF00303C5E0B7F8663096
:10126C005A1CA7F8662068333B44FA7B03F8482CD9
:10127C00B7F866305A1CA7F8662068333B44102236
:10128C0003F8482CBB891B0A9AB2B7F86630591C74
:10129C00A7F86610D2B268333B4403F8482CB7F871
:1012AC0066305A1CA7F86620BA89D2B268333B4420
:1012BC0003F8482CFB881B0A9AB2B7F86630591C05
:1012CC00A7F86610D2B268333B4403F8482CB7F841
:1012DC0066305A1CA7F86620FA88D2B268333B44B1
:1012EC0003F8482CFB88DAB2B7F86630591CA7F81B
:1012FC0066105200D2B268333B4403F8482C0023EA
:10130C00A7F8643026E0B7F864305B00BA68134481
:10131C001B881B0A9AB2B7F86630591CA7F86610DE
:10132C00D2B268333B4403F8482CB7F864305B0006
:10133C00BA6813441A88B7F86630591CA7F86610B7
:10134C00D2B268333B4403F8482CB7F8643001330D
:10135C00A7F86430B7F86420FB889A42D3D3B7F867
:10136C00662007F1200311461846FFF751FE03468D
:10137C00A7F86230B7F866305A1CA7F86620B7F8A1
:10138C006220D2B268333B4403F8482CB7F8623081
:10139C001B0A9AB2B7F86630591CA7F86610D2B27D
:1013AC0068333B4403F8482CFB7B002B03D097F8A5
:1013BC007030002B09D1B7F8662007F120031146D5
:1013CC001846FFF761FE03460EE007F11802B7F866
:1013DC00661007F120000A23019307F1160300930E
:1013EC000823FFF7A5FE034618466837BD4680BDA7
:1013FC0080B582B000AF00F0E7FE0023FB7141E046
:10140C00FB79FA792349C85C234913465B001344E2
:10141C009B000B4402461A70FA791F4913465B0075
:10142C0013449B000B44013300221A70FA791A49B9
:10143C0013465B0013449B000B44023300221A70CA
:10144C00FA79154913465B0013449B000B44043393
:10145C004FF000021A60FA790F4913465B001344EF
:10146C009B000B44083300221A80FA790A49134670
:10147C005B0013449B000B440A3300221A80FB7957
:10148C000133FB71FB79032BBAD900BF00BF0837BE
:10149C00BD4680BD284800086C00002080B584B093
:1014AC0000AF0346FB710023FB732FE0FB7B1B4A51
:1014BC00D35CFA791146184600F08CFE0346BB73D8
:1014CC0097F90E30002B14D1FA7B154913465B00AB
:1014DC0013449B000B44013301221A70FA7B104910
:1014EC0013465B0013449B000B44083300221A8004
:1014FC0009E0FA7B0A4913465B0013449B000B443A
:10150C00013300221A70FB7B0133FB73FB7B032B33
:10151C00CCD9002318461037BD4680BD284800089A
:10152C006C00002090B587B000AF78607B68002B12
:10153C0002D16FF0030347E00023FB7540E0FA7D16
:10154C007B6853F82240FB7D214AD3561846FEF7A0
:10155C00B1FE034619462046FEF700FF03463B61E9
:10156C00FB7D1C4AD35C00223969184600F053FEFF
:10157C000346FB7397F90F30002B14D1FA7D1649F3
:10158C0013465B0013449B000B44013301221A7079
:10159C00FA7D114913465B0013449B000B4408333E
:1015AC0000221A8009E0FA7D0B4913465B001344B4
:1015BC009B000B44013300221A70FB7D0133FB7539
:1015CC00FB7D032BBBD9002318461C37BD4690BDB1
:1015DC0000000020284800086C00002080B400AFF8
:1015EC0000231846BD4680BC7047000080B400AF95
:1015FC00024B1846BD4680BC704700BF6C000020F3
:10160C0080B584B000AF786039600023FB73002391
:10161C00BB607B68002B00F096803B68002B00F0D1
:10162C0092807B6893F82B30002B01D00123FB7345
:10163C007B6893F82C30002B01D00223FB737B6862
:10164C0093F82D30002B01D00323FB737B6893F8A8
:10165C002030002B03D1BB6843F00103BB607B68D7
:10166C0093F82A30002B03D1BB6843F00203BB6014
:10167C007B6893F82D30002B03D0BB6843F0040338
:10168C00BB607B681B6832491846FEF767FE034651
:10169C001A463B681A607B68DB682D491846FEF7D2
:1016AC005DFE03461A463B685A607B685A683B6885
:1016BC009A607B689A683B68DA607B6893F82A309A
:1016CC00002B0CD07B68DB8C1846FEF7EFFD034635
:1016DC0020491846FEF742FE03461A4600E01E4A11
:1016EC003B681A617B689A8C3B689A827B68DA8CBF
:1016FC003B68DA827B6893F82030002B14BF0123FF
:10170C000023DAB23B681A767B6893F82130002B01
:10171C0014BF01230023DAB23B685A767B6893F836
:10172C002A30002B14BF01230023DAB23B689A76CF
:10173C003B68FA7BDA767B689A6B3B68DA613B68CC
:10174C00BA681A6200E000BF1037BD4680BD00BF0A
:10175C0035FA8E3C6F12833A000080BF80B592B090
:10176C0000AF78607B68002B0BD007F10C03184698
:10177C00FEF7DAFF07F10C0379681846FFF740FF14
:10178C0000E000BF4837BD4680BD0000B0B485B056
:10179C0000AF78607B68002B19D0EFF31083BB602F
:1017AC00BB68FB6072B600BF7B680B4A1C461546D3
:1017BC000FCD0FC40FCD0FC40FCD0FC495E807008C
:1017CC0084E80700FB68002B02D162B600E000BF82
:1017DC001437BD46B0BC70479C00002080B485B067
:1017EC0000AF154B9B69144A43F001039361124BF4
:1017FC009B6903F00103BB60BB680F4BDB690E4AAE
:10180C0043F08053D3610C4BDB6903F080537B6056
:10181C007B680A4B5B68FB60FB6823F0E063FB6052
:10182C00FB6843F00073FB60044AFB68536000BF25
:10183C001437BD4680BC70470010024000000140C8
:10184C0080B400AF00BFFDE780B400AF00BFFDE780
:10185C0080B400AF00BFFDE780B400AF00BFFDE770
:10186C0080B400AF00BFFDE780B400AF00BFBD4641
:10187C0080BC704780B400AF00BFBD4680BC7047D1
:10188C0080B400AF00BFBD4680BC704780B500AFD0
:10189C0000F060FD00BF80BD80B500AF024801F0D4
:1018AC005FFE00BF80BD00BFA401002080B582B0E8
:1018BC0000AF78604FF000017868FEF701FF034637
:1018CC00002B01D07B6802E07B6883F00043184654
:1018DC000837BD4680BD80B584B000AFF860B960F4
:1018EC007A60B968F868FEF7D7FE0346002B01D082
:1018FC00BB6809E07968F868FEF7ECFE0346002B3C
:10190C0001D07B6800E0FB6818461037BD4680BDEF
:10191C0080B582B000AF786005E010497868FEF7BA
:10192C0013FC03467B600E497868FEF7D3FE034632
:10193C00002BF2D105E009497868FEF707FC034655
:10194C007B6008497868FEF7A7FE0346002BF2D1AE
:10195C007B6818460837BD4680BD00BFDB0FC94009
:10196C00DB0F4940DB0F49C080B485B000AFF86095
:10197C00B9607A603B60FB68002B24D0FB68BA68C6
:10198C001A60FB687A685A60FB683A689A60FB6870
:10199C004FF00002DA60FB684FF000021A61FB683E
:1019AC00BA695A61FB68FA699A61FB683A6ADA614A
:1019BC00FB687A6A1A62FB68BA6A5A62FB6801228F
:1019CC0083F8282000E000BF1437BD4680BC704768
:1019DC0080B483B000AF78607B68002B0CD07B6840
:1019EC004FF00002DA607B684FF000021A617B68EE
:1019FC00012283F8282000E000BF0C37BD4680BCD4
:101A0C007047000080B582B000AF78607B68002B17
:101A1C0001D1002333E01C4B1B78002B01D1002398
:101A2C002DE07B685B681846FFF740FF03461749BB
:101A3C001846FEF731FE0346002B01D000231EE0B2
:101A4C007B681B681846FFF731FF034610491846A0
:101A5C00FEF740FE0346002B01D000230FE07B680D
:101A6C009B681846FFF722FF034609491846FEF704
:101A7C0031FE0346002B01D0002300E00123184661
:101A8C000837BD4680BD00BFD80000208FC2F53C92
:101A9C000AD7233C80B586B000AF78603960FFF779
:101AAC00A5FDB8604FF000037B614FF000033B6174
:101ABC000023FB730023BB73BB68002B05D07B6832
:101ACC00002B02D03B68002B01D1002364E0BB68E3
:101ADC005B78002B0AD0BB685B6819467869FEF707
:101AEC0035FB03467B61FB7B0133FB73BB6818330F
:101AFC005B78002B0BD0BB6818335B681946786990
:101B0C00FEF724FB03467B61FB7B0133FB73BB6855
:101B1C000C335B78002B0BD0BB680C335B6819461D
:101B2C003869FEF713FB03463B61BB7B0133BB7388
:101B3C00BB6824335B78002B0BD0BB6824335B6809
:101B4C0019463869FEF702FB03463B61BB7B013348
:101B5C00BB73FB7B002B02D0BB7B002B01D1002382
:101B6C001AE0FB7B1846FEF7A1FB03461946786981
:101B7C00FEF7A8FC03461A467B681A60BB7B184626
:101B8C00FEF794FB034619463869FEF79BFC0346A7
:101B9C001A463B681A60012318461837BD4680BDAB
:101BAC0080B586B006AF154B0493154B0393154BBC
:101BBC000293134B0193134B0093134B134A144989
:101BCC001448FFF7D1FE4FF080430493124B03935C
:101BDC00124B0293104B0193104B00934FF00003E8
:101BEC000F4A10491048FFF7BFFE104B00221A7025
:101BFC0000F03EF800BFBD4680BD00BF728A0E3CAF
:101C0C00CDCCCC3ECDCCCCBE0AD7A33CCDCC4C3D20
:101C1C009A99993FDC000020CDCCCC3DCDCCCCBDED
:101C2C0017B7D1386F12833A08010020D800002072
:101C3C0080B582B000AF0346FB71FB79002B01D05D
:101C4C00012200E00022084B1A70074B1B78002B76
:101C5C0001D100F00DF8044B1A78044B1A7000BF38
:101C6C000837BD4680BD00BFD800002034010020DD
:101C7C0080B58AB000AF0C48FFF7AAFE0B48FFF7FF
:101C8C00A7FE0B4B00221A700A4B184628231A4643
:101C9C00002102F08BFD084B1A78064B1A7000BF1E
:101CAC002837BD4680BD00BFDC00002008010020A5
:101CBC00D900002034010020D800002090B587B056
:101CCC0000AFF860B9607A604FF000037B61FB688D
:101CDC00002B02D14FF0000386E04FF00001786832
:101CEC00FEF7E4FC0346002B06D141497868FEF769
:101CFC00F1FC0346002B01D03E4B7B60B868FFF72C
:101D0C00D5FD0246FB685B6A19461046FEF7C4FC1B
:101D1C000346002B02D04FF00003BB60FB68DC686D
:101D2C007968B868FEF71AFB034619462046FEF799
:101D3C000DFA03461A46FB68DA60FB68D868FB6844
:101D4C00D969FB681B6A1A46FFF7C5FD0246FB689A
:101D5C00DA60FB6893F82830002B07D04FF00003B3
:101D6C007B61FB68002283F828200CE0FB681B6970
:101D7C001946B868FEF7E8F9034679681846FEF785
:101D8C00A1FB03467B61FB68BA681A61FB681B68A0
:101D9C00B9681846FEF7E2FA03461C46FB685A6817
:101DAC00FB68DB6819461046FEF7D8FA034619465D
:101DBC002046FEF7CBF903461C46FB689B68796905
:101DCC001846FEF7CBFA034619462046FEF7BEF935
:101DDC0003463B61FB685969FB689B691A46386985
:101DEC00FFF779FD38613B6918461C37BD4690BD3D
:101DFC00CDCC4C3E0AD7A33C90B599B000AFF8605F
:101E0C00B9607A604FF000033B644FF000037B64D1
:101E1C004FF00003BB644FF00003BB614FF00003B5
:101E2C007B614FF00003BB65BB68002B0AD1FFF749
:101E3C001FFFFB681C4607F1400393E8070084E88A
:101E4C000700C7E0BA6807F1400307CA83E8070038
:101E5C00B868FFF7D7FD0346002B0AD1FFF708FF40
:101E6C00FB681C4607F1400393E8070084E8070071
:101E7C00B0E007F11C031846FFF770FC97F83430FC
:101E8C0083F00103DBB2002B06D197F8353083F0D9
:101E9C000103DBB2002B11D0FFF7EAFE4F4B1A788F
:101EAC004F4B1A704E4B00229A70FB681C4607F180
:101EBC00400393E8070084E807008BE0494B1B784C
:101ECC00002B0BD1474B01221A70FB69444A53601B
:101EDC004548FFF77DFD4548FFF77AFD404B5B68B1
:101EEC00FA6911461846FEF72FF903461846FFF714
:101EFC000FFD78657A68796D3B48FFF7DFFE386532
:101F0C0007F1140207F1180311461846FFF7C2FD3A
:101F1C0003461A46324BDA70314BDB78002B0ED06D
:101F2C00BB697A6911461846FEF70EF90346FB6544
:101F3C007A68F96D2D48FFF7C1FEB86505E04FF0E2
:101F4C000003FB652948FFF743FDB96D386DFEF7BB
:101F5C00FDF80346264A27491846FFF7BCFCF864EF
:101F6C00BB689B68F96C1846FEF7F0F803464FF017
:101F7C007F5221491846FFF7AEFC0346BB64174B52
:101F8C001A78174B1A70174B1A78154B5A70144B4A
:101F9C0001229A70FB69124A9360114A7B6DD360DF
:101FAC000F4A3B6D1361BB690D4A53617B690C4A47
:101FBC0093610B4AFB6DD361094ABB6D1362084AEE
:101FCC00FB6C5362FB681C4607F1400393E8070067
:101FDC0084E80700F8686437BD4690BDD80000203F
:101FEC0034010020D9000020DC0000200801002072
:101FFC00CDCCCC3ECDCCCCBE0000C0BF80B400AFAD
:10200C0000BFBD4680BC704780B500AF114B124A73
:10201C001A60104B4FF4E1325A600E4B00229A605A
:10202C000C4B0022DA600B4B00221A61094B0C227C
:10203C005A61084B00229A61064B0022DA6105486E
:10204C0001F01CF90346002B01D0FEF7ADFD00BFDB
:10205C0080BD00BF5C0100200038014080B58AB013
:10206C0000AF786007F1180300221A605A609A607A
:10207C00DA607B681B683B4A934232D13A4B9B69CE
:10208C00394A43F480439361374B9B6903F4804393
:10209C007B617B69344B9B69334A43F00403936146
:1020AC00314B9B6903F004033B613B694FF40073B4
:1020BC00BB610223FB6103237B6207F11803194602
:1020CC002A4800F047FB4FF48063BB610023FB619F
:1020DC0000233B6207F118031946244800F03AFB31
:1020EC003CE07B681B68224A934237D11E4BDB696C
:1020FC001D4A43F40033D3611B4BDB6903F40033FB
:10210C00FB60FB68184B9B69174A43F0040393610F
:10211C00154B9B6903F00403BB60BB680423BB61D4
:10212C000223FB6103237B6207F1180319460F4856
:10213C0000F010FB0823BB610023FB6100233B6212
:10214C0007F118031946094800F004FB002200218E
:10215C00262000F016FA262000F02FFA00BF2837B0
:10216C00BD4680BD0038014000100240000801400F
:10217C000044004080B584B000AF78604FF07C51D3
:10218C007868FDF7E3FF0346FB604FF00001F86849
:10219C00FEF782FA0346002B02D04FF00003FB60DF
:1021AC000849F868FEF796FA0346002B01D0054B58
:1021BC00FB60F868FEF798FA03469BB21846103796
:1021CC00BD4680BD00FF7F4780B400AF00BFBD4659
:1021DC0080BC704780B586B002AF03460A46FB71DF
:1021EC001346BB71BB79002B02D04AF6013301E0D8
:1021FC004FF42B43BB810023FB8107F10C02F879D0
:10220C00002300930223E021FFF70EF80346184643
:10221C001037BD4680BD80B588B002AF034639602B
:10222C00FB711346BB713B687B614FF00001786911
:10223C00FEF746FA0346002B02D00023BB8105E0D3
:10224C000123BB817B6983F000437B614FF47A737C
:10225C00FB817869FFF78EFF03463B8200237B826C
:10226C0007F10C02F879002300930423E621FEF712
:10227C00DBFF034618461837BD4680BDFFF7BEFE90
:10228C000B480C490C4A002302E0D458C4500433C8
:10229C00C4188C42F9D3094A094C002301E013609D
:1022AC000432A242FBD302F089FAFEF71FFC7047FE
:1022BC000000002018000020204900081800002011
:1022CC0018020020FEE7000080B500AF084B1B6829
:1022DC00074A43F010031360032000F047F90F2066
:1022EC0000F008F8FFF77AFA0023184680BD00BF0B
:1022FC000020024080B582B000AF7860124B1A68A3
:10230C00124B1B7819464FF47A73B3FBF1F3B2FB03
:10231C00F3F3184600F05FF90346002B01D00123BC
:10232C000EE07B680F2B0AD8002279684FF0FF3043
:10233C0000F027F9064A7B681360002300E00123B4
:10234C0018460837BD4680BD040000200C00002054
:10235C000800002080B400AF054B1B781A46054BD3
:10236C001B681344034A136000BFBD4680BC704712
:10237C000C000020EC01002080B400AF024B1B6865
:10238C001846BD4680BC7047EC01002080B584B077
:10239C0000AF7860FFF7F0FFB8607B68FB60FB680C
:1023AC00B3F1FF3F05D00A4B1B781A46FB68134468
:1023BC00FB6000BFFFF7E0FF0246BB68D31AFA6868
:1023CC009A42F7D800BF00BF1037BD4680BD00BF92
:1023DC000C00002080B485B000AF78607B6803F0FF
:1023EC000703FB600C4BDB68BB60BA684FF6FF035E
:1023FC001340BB60FB681A02BB68134343F0BF6316
:10240C0043F40033BB60044ABB68D36000BF14378D
:10241C00BD4680BC704700BF00ED00E080B400AF4B
:10242C00044BDB681B0A03F007031846BD4680BC4F
:10243C00704700BF00ED00E080B483B000AF0346EE
:10244C00FB7197F90730002B0BDBFB7903F01F02B4
:10245C00064997F907305B09012000FA02F241F8AE
:10246C00232000BF0C37BD4680BC704700E100E064
:10247C0080B483B000AF03463960FB7197F9073025
:10248C00002B0ADB3B68DAB20C4997F907301201D2
:10249C00D2B20B4483F800230AE03B68DAB2084955
:1024AC00FB7903F00F03043B1201D2B20B441A76F2
:1024BC0000BF0C37BD4680BC704700BF00E100E098
:1024CC0000ED00E080B489B000AFF860B9607A60CC
:1024DC00FB6803F00703FB61FB69C3F10703042BE3
:1024EC0028BF0423BB61FB690433062B02D9FB69AB
:1024FC00033B00E000237B614FF0FF32BB6902FA23
:10250C0003F3DA43BB681A407B699A404FF0FF3102
:10251C007B6901FA03F3D9437B680B4013431846DC
:10252C002437BD4680BC704780B582B000AF786060
:10253C007B68013BB3F1807F01D301230FE00A4A92
:10254C007B68013B53600F214FF0FF30FFF790FF8A
:10255C00054B00229A60044B07221A600023184690
:10256C000837BD4680BD00BF10E000E080B582B0EA
:10257C0000AF78607868FFF72DFF00BF0837BD46C5
:10258C0080BD80B586B000AF0346B9607A60FB733E
:10259C0000237B61FFF742FF78617A68B96878693C
:1025AC00FFF790FF024697F90F3011461846FFF7D8
:1025BC005FFF00BF1837BD4680BD80B582B000AF4D
:1025CC000346FB7197F907301846FFF735FF00BF3C
:1025DC000837BD4680BD80B582B000AF78607868A2
:1025EC00FFF7A2FF034618460837BD4680BD80B4EE
:1025FC0085B000AF78600023FB737B6893F82130C3
:10260C00DBB2022B08D07B6804229A637B68002221
:10261C0083F82020012320E07B681B681A687B6804
:10262C001B6822F00E021A607B681B681A687B68B4
:10263C001B6822F001021A607B681A6C7B68DB6BEA
:10264C00012101FA02F25A607B68012283F82120F1
:10265C007B68002283F82020FB7B18461437BD468C
:10266C0080BC704780B584B000AF78600023FB73EA
:10267C007B6893F82130DBB2022B05D07B680422F7
:10268C009A630123FB7351E07B681B681A687B68B3
:10269C001B6822F00E021A607B681B681A687B6844
:1026AC001B6822F001021A607B681B68224A934265
:1026BC0029D07B681B68214A934222D07B681B6817
:1026CC001F4A93421AD07B681B681E4A934212D051
:1026DC007B681B681C4A93420AD07B681B681B4AA8
:1026EC00934202D14FF480130EE04FF080730BE055
:1026FC004FF4803308E04FF4805305E04FF48073BF
:10270C0002E0102300E00123114A53607B68012290
:10271C0083F821207B68002283F820207B685B6B88
:10272C00002B03D07B685B6B78689847FB7B184663
:10273C001037BD4680BD00BF080002401C0002409F
:10274C003000024044000240580002406C0002403D
:10275C000000024080B48BB000AF78603960002379
:10276C007B6200233B6269E101227B6A02FA03F37C
:10277C00FB613B681B68FA691340BB61BA69FB6972
:10278C009A4240F058813B685B689A4A93425ED00B
:10279C00984A934275D8984A934258D0964A934295
:1027AC006FD8964A934252D0944A934269D8944A2D
:1027BC0093424CD0924A934263D8924A934246D069
:1027CC00904A93425DD8122B2AD8122B59D801A2C9
:1027DC0052F823F05B280008352800084728000829
:1027EC00892800088F2800088F2800088F280008E7
:1027FC008F2800088F2800088F2800088F280008D1
:10280C008F2800088F2800088F2800088F280008C0
:10281C008F2800088F2800083D2800085128000840
:10282C00794A934213D02CE03B68DB683B6229E089
:10283C003B68DB6804333B6224E03B68DB680833AD
:10284C003B621FE03B68DB680C333B621AE03B6881
:10285C009B68002B02D104233B6213E03B689B680E
:10286C00012B05D108233B627B68FA691A6109E0E8
:10287C0008233B627B68FA695A6103E000233B62E0
:10288C0000E000BFBB69FF2B01D87B6801E07B68CF
:10289C0004337B61BB69FF2B02D87B6A9B0002E08F
:1028AC007B6A083B9B003B617B691A680F213B6983
:1028BC0001FA03F3DB431A40396A3B6901FA03F36B
:1028CC001A437B691A603B685B6803F08053002BEA
:1028DC0000F0B1804D4B9B694C4A43F0010393616E
:1028EC004A4B9B6903F00103BB60BB68484A7B6A97
:1028FC009B08023352F82330FB607B6A03F003031E
:10290C009B000F2202FA03F3DB43FA681340FB60CF
:10291C007B68404A934213D07B683F4A93420DD068
:10292C007B683E4A934207D07B683D4A934201D173
:10293C00032306E0042304E0022302E0012300E069
:10294C0000237A6A02F0030292009340FA68134360
:10295C00FB602F497B6A9B080233FA6841F82320FD
:10296C003B685B6803F48013002B06D02D4B9A68F0
:10297C002C49BB6913438B6006E02A4B9A68BB69F0
:10298C00DB43284913408B603B685B6803F40013FE
:10299C00002B06D0234BDA682249BB691343CB606A
:1029AC0006E0204BDA68BB69DB431E491340CB6061
:1029BC003B685B6803F40033002B06D0194B5A6854
:1029CC001849BB6913434B6006E0164B5A68BB6948
:1029DC00DB43144913404B603B685B6803F4803362
:1029EC00002B21D00F4B1A680E49BB6913430B60A7
:1029FC0021E000BF00003210000031100000221056
:102A0C0000002110000012100000111000100240F4
:102A1C000000014000080140000C01400010014082
:102A2C0000140140000401400B4B1A68BB69DB43E6
:102A3C00094913400B607B6A01337B623B681A685F
:102A4C007B6A22FA03F3002B7FF48EAE00BF00BF2B
:102A5C002C37BD4680BC70470004014080B586B061
:102A6C0000AF78607B68002B01D1012372E27B6898
:102A7C001B6803F00103002B00F08780924B5B680E
:102A8C0003F00C03042B0CD08F4B5B6803F00C038E
:102A9C00082B12D18C4B5B6803F48033B3F5803F69
:102AAC000BD1894B1B6803F40033002B6CD07B6873
:102ABC005B68002B68D101234CE27B685B68B3F543
:102ACC00803F06D1804B1B687F4A43F480331360F0
:102ADC002EE07B685B68002B0CD17B4B1B687A4A21
:102AEC0023F480331360784B1B68774A23F48023DC
:102AFC0013601DE07B685B68B3F5A02F0CD1724BA3
:102B0C001B68714A43F4802313606F4B1B686E4A39
:102B1C0043F4803313600BE06B4B1B686A4A23F45D
:102B2C0080331360684B1B68674A23F4802313605F
:102B3C007B685B68002B13D0FFF71EFC386108E044
:102B4C00FFF71AFC02463B69D31A642B01D9032305
:102B5C0000E25D4B1B6803F40033002BF0D014E053
:102B6C00FFF70AFC386108E0FFF706FC02463B69F8
:102B7C00D31A642B01D90323ECE1534B1B6803F4E8
:102B8C000033002BF0D100E000BF7B681B6803F022
:102B9C000203002B63D04C4B5B6803F00C03002B3F
:102BAC000BD0494B5B6803F00C03082B1CD1464B34
:102BBC005B6803F48033002B16D1434B1B6803F086
:102BCC000203002B05D07B681B69012B01D001236C
:102BDC00C0E13D4B1B6823F0F8027B685B69DB00AE
:102BEC00394913430B603AE07B681B69002B20D0FA
:102BFC00364B01221A60FFF7BFFB386108E0FFF784
:102C0C00BBFB02463B69D31A022B01D90323A1E17A
:102C1C002D4B1B6803F00203002BF0D02A4B1B68D2
:102C2C0023F0F8027B685B69DB00274913430B60D8
:102C3C0015E0264B00221A60FFF79EFB386108E076
:102C4C00FFF79AFB02463B69D31A022B01D90323E7
:102C5C0080E11D4B1B6803F00203002BF0D17B6855
:102C6C001B6803F00803002B3AD07B689B69002B90
:102C7C0019D0174B01221A60FFF77EFB386108E070
:102C8C00FFF77AFB02463B69D31A022B01D90323C7
:102C9C0060E10D4B5B6A03F00203002BF0D00120C6
:102CAC0000F0CEFA1CE00A4B00221A60FFF764FB1E
:102CBC0038610FE0FFF760FB02463B69D31A022B29
:102CCC0008D9032346E100BF001002400000424235
:102CDC0080044242924B5B6A03F00203002BE9D161
:102CEC007B681B6803F00403002B00F0A680002314
:102CFC00FB758B4BDB6903F08053002B0DD1884B9C
:102D0C00DB69874A43F08053D361854BDB6903F061
:102D1C008053BB60BB680123FB75824B1B6803F4BB
:102D2C008073002B18D17F4B1B687E4A43F4807351
:102D3C001360FFF721FB386108E0FFF71DFB02462B
:102D4C003B69D31A642B01D9032303E1754B1B6830
:102D5C0003F48073002BF0D07B68DB68012B06D169
:102D6C006F4B1B6A6E4A43F0010313622DE07B68C4
:102D7C00DB68002B0CD16A4B1B6A694A23F00103F8
:102D8C001362674B1B6A664A23F0040313621CE050
:102D9C007B68DB68052B0CD1614B1B6A604A43F0E6
:102DAC00040313625E4B1B6A5D4A43F0010313621A
:102DBC000BE05B4B1B6A5A4A23F001031362584B1E
:102DCC001B6A574A23F0040313627B68DB68002BF1
:102DDC0015D0FFF7D1FA38610AE0FFF7CDFA0246B9
:102DEC003B69D31A41F28832934201D90323B1E0F3
:102DFC004B4B1B6A03F00203002BEED014E0FFF7E1
:102E0C00BBFA38610AE0FFF7B7FA02463B69D31AFE
:102E1C0041F28832934201D903239BE0404B1B6A59
:102E2C0003F00203002BEED1FB7D012B05D13C4BB3
:102E3C00DB693B4A23F08053D3617B68DB69002B51
:102E4C0000F08780364B5B6803F00C03082B61D0D5
:102E5C007B68DB69022B46D1334B00221A60FFF7EB
:102E6C008BFA386108E0FFF787FA02463B69D31A00
:102E7C00022B01D903236DE0294B1B6803F000736F
:102E8C00002BF0D17B681B6AB3F5803F08D1244B33
:102E9C005B6823F400327B689B68214913434B60C9
:102EAC001F4B5B6823F474127B68196A7B685B6A3E
:102EBC000B431B4913434B601B4B01221A60FFF75A
:102ECC005BFA386108E0FFF757FA02463B69D31A00
:102EDC00022B01D903233DE0114B1B6803F0007357
:102EEC00002BF0D035E0104B00221A60FFF744FAAB
:102EFC00386108E0FFF740FA02463B69D31A022B0F
:102F0C0001D9032326E0064B1B6803F00073002B4A
:102F1C00F0D11EE07B68DB69012B07D1012319E09E
:102F2C000010024000700040600042420B4B5B6896
:102F3C00FB60FB6803F480327B681B6A9A4206D103
:102F4C00FB6803F470127B685B6A9A4201D0012320
:102F5C0000E0002318461837BD4680BD0010024023
:102F6C0080B584B000AF786039607B68002B01D1EC
:102F7C000123D0E06A4B1B6803F007033A689A42BE
:102F8C0010D9674B1B6823F0070265493B68134354
:102F9C000B60634B1B6803F007033A689A4201D03D
:102FAC000123B8E07B681B6803F00203002B20D0E0
:102FBC007B681B6803F00403002B05D0594B5B683E
:102FCC00584A43F4E06353607B681B6803F00803C2
:102FDC00002B05D0534B5B68524A43F4605353604B
:102FEC00504B5B6823F0F0027B689B684D491343A0
:102FFC004B607B681B6803F00103002B40D07B689F
:10300C005B68012B07D1474B1B6803F40033002B83
:10301C0015D101237FE07B685B68022B07D1414B04
:10302C001B6803F00073002B09D1012373E03D4BA7
:10303C001B6803F00203002B01D101236BE0394B19
:10304C005B6823F003027B685B68364913434B6073
:10305C00FFF792F9F8600AE0FFF78EF90246FB6879
:10306C00D31A41F28832934201D9032353E02D4BFA
:10307C005B6803F00C027B685B689B009A42EBD1A7
:10308C00274B1B6803F007033A689A4210D2244B73
:10309C001B6823F0070222493B6813430B60204B4B
:1030AC001B6803F007033A689A4201D0012332E00F
:1030BC007B681B6803F00403002B08D0194B5B687A
:1030CC0023F4E0627B68DB68164913434B607B6832
:1030DC001B6803F00803002B09D0124B5B6823F428
:1030EC0060527B681B69DB000E4913434B6000F098
:1030FC0021F802460B4B5B681B0903F00F030A49CE
:10310C00CB5C22FA03F3094A1360094B1B6818467F
:10311C00FFF7F0F8002318461037BD4680BD00BFFE
:10312C0000200240001002402C480008040000203F
:10313C000800002080B487B000AF0023FB600023A0
:10314C00BB6000237B6100237B6000233B611E4B33
:10315C005B68FB60FB6803F00C03042B02D0082BAC
:10316C0003D027E0194B3B6127E0FB689B0C03F075
:10317C000F03174AD35C7B60FB6803F48033002B8E
:10318C0010D0114B5B685B0C03F00103114AD35C4C
:10319C00BB607B680D4A03FB02F2BB68B2FBF3F326
:1031AC007B6104E07B680C4A02FB03F37B617B6967
:1031BC003B6102E0054B3B6100BF3B6918461C3785
:1031CC00BD4680BC704700BF0010024000127A0060
:1031DC00444800085448000800093D0080B400AF82
:1031EC00024B1B681846BD4680BC7047040000208B
:1031FC0080B500AFFFF7F2FF0246054B5B681B0A78
:10320C0003F007030349CB5C22FA03F3184680BD95
:10321C00001002403C48000880B500AFFFF7DEFF0D
:10322C000246054B5B68DB0A03F007030349CB5CE2
:10323C0022FA03F3184680BD001002403C480008F7
:10324C0080B485B000AF78600A4B1B680A4AA2FBB9
:10325C0003235B0A7A6802FB03F3FB6000BFFB6885
:10326C005A1EFA60002BF9D100BF00BF1437BD46BF
:10327C0080BC704704000020D34D621080B582B032
:10328C0000AF78607B68002B01D1012342E07B68A2
:10329C0093F84130DBB2002B06D17B68002283F817
:1032AC0040207868FEF7DAFE7B68242283F8412000
:1032BC007B681B68DA687B681B6822F40052DA6052
:1032CC00786800F0F1FD7B681B681A697B681B68E5
:1032DC0022F490421A617B681B685A697B681B68F0
:1032EC0022F02A025A617B681B68DA687B681B68CB
:1032FC0042F40052DA607B6800225A647B68202218
:10330C0083F841207B68202283F842207B680022CE
:10331C005A63002318460837BD4680BD80B58AB075
:10332C0002AFF860B9603B601346FB8000237B6101
:10333C00FB6893F84130DBB2202B75D1BB68002BB6
:10334C0002D0FB88002B01D101236EE0FB68002228
:10335C005A64FB68212283F84120FFF70DF878614D
:10336C00FB68FA889A84FB68FA88DA84FB689B68A5
:10337C00B3F5805F08D1FB681B69002B04D10023D7
:10338C00FB61BB68BB6103E0BB68FB610023BB61F5
:10339C002EE03B6800937B6900228021F86800F0E6
:1033AC008EFB0346002B05D0FB68202283F84120BE
:1033BC0003233AE0FB69002B0BD1BB691B881A462F
:1033CC00FB681B68C2F308025A60BB690233BB611D
:1033DC0007E0FB691A78FB681B685A60FB690133CC
:1033EC00FB61FB68DB8C9BB2013B9AB2FB68DA8415
:1033FC00FB68DB8C9BB2002BCBD13B6800937B69C9
:10340C0000224021F86800F05AFB0346002B05D03F
:10341C00FB68202283F84120032306E0FB6820226E
:10342C0083F84120002300E0022318462037BD46D4
:10343C0080BD80B58AB002AFF860B9603B601346BE
:10344C00FB8000237B61FB6893F84230DBB2202BBE
:10345C0040F08180BB68002B02D0FB88002B01D18F
:10346C00012379E0FB6800225A64FB68222283F86E
:10347C004220FB6800221A63FEF77EFF7861FB682E
:10348C00FA889A85FB68FA88DA85FB689B68B3F53D
:10349C00805F08D1FB681B69002B04D10023FB6102
:1034AC00BB68BB6103E0BB68FB610023BB6147E009
:1034BC003B6800937B6900222021F86800F0FFFA3A
:1034CC000346002B05D0FB68202283F842200323FF
:1034DC0042E0FB69002B0CD1FB681B685B689BB25C
:1034EC00C3F308039AB2BB691A80BB690233BB6190
:1034FC001FE0FB689B68B3F5805F07D0FB689B6897
:10350C00002B0AD1FB681B69002B06D1FB681B68DA
:10351C005B68DAB2FB691A7008E0FB681B685B68D1
:10352C00DBB203F07F03DAB2FB691A70FB6901337B
:10353C00FB61FB68DB8D9BB2013B9AB2FB68DA85C1
:10354C00FB68DB8D9BB2002BB2D1FB68202283F889
:10355C004220002300E0022318462037BD4680BDE0
:10356C0080B5BAB000AF78607B681B681B68C7F881
:10357C00E4307B681B68DB68C7F8E0307B681B684D
:10358C005B69C7F8DC300023C7F8D8300023C7F8D4
:10359C00D430D7F8E43003F00F03C7F8D830D7F89D
:1035AC00D830002B0FD1D7F8E43003F02003002BD8
:1035BC0009D0D7F8E03003F02003002B03D0786853
:1035CC0000F0B3FB5BE2D7F8D830002B00F0DE80C4
:1035DC00D7F8DC3003F00103002B06D1D7F8E0302C
:1035EC0003F49073002B00F0D180D7F8E43003F093
:1035FC000103002B0BD0D7F8E03003F48073002BC1
:10360C0005D07B685B6C43F001027B685A64D7F889
:10361C00E43003F00403002B0BD0D7F8DC3003F0BC
:10362C000103002B05D07B685B6C43F002027B68C6
:10363C005A64D7F8E43003F00203002B0BD0D7F810
:10364C00DC3003F00103002B05D07B685B6C43F08E
:10365C0004027B685A64D7F8E43003F00803002BAB
:10366C0011D0D7F8E03003F02003002B05D1D7F8A8
:10367C00DC3003F00103002B05D07B685B6C43F05E
:10368C0008027B685A647B685B6C002B00F0F2814B
:10369C00D7F8E43003F02003002B08D0D7F8E03043
:1036AC0003F02003002B02D0786800F03EFB7B680F
:1036BC001B685B6903F04003002B14BF012300233C
:1036CC00DBB2C7F8D4307B685B6C03F00803002BCB
:1036DC0003D1D7F8D430002B4FD0786800F048FADB
:1036EC007B681B685B6903F04003002B41D07B684F
:1036FC001B681433C7F89C30D7F89C3053E8003F54
:10370C00C7F89830D7F8983023F04003C7F8D0307A
:10371C007B681B681433D7F8D020C7F8A820C7F8EB
:10372C00A430D7F8A410D7F8A82041E80023C7F894
:10373C00A030D7F8A030002BD9D17B68DB6B002BE5
:10374C0013D07B68DB6B7E4A5A637B68DB6B184655
:10375C00FEF788FF0346002B16D07B68DB6B5B6B98
:10376C007A68D26B104698470EE0786800F093F9AF
:10377C000AE0786800F08FF906E0786800F08BF9C1
:10378C007B6800225A6475E100BF73E17B681B6B98
:10379C00012B40F04F81D7F8E43003F01003002BDD
:1037AC0000F04881D7F8E03003F01003002B00F054
:1037BC0041810023BB607B681B681B68BB607B6816
:1037CC001B685B68BB60BB687B681B685B6903F04C
:1037DC004003002B00F0B6807B68DB6B1B685B68DA
:1037EC00A7F8BE30B7F8BE30002B00F045817B68DF
:1037FC009B8DB7F8BE209A4280F03E817B68B7F86B
:10380C00BE20DA857B68DB6B9B69202B00F08880FF
:10381C007B681B680C33C7F88830D7F8883053E8BE
:10382C00003FC7F88430D7F8843023F48073C7F88E
:10383C00B8307B681B680C33D7F8B820C7F89420D5
:10384C00C7F89030D7F89010D7F8942041E80023AF
:10385C00C7F88C30D7F88C30002BD9D17B681B681B
:10386C0014337B677B6F53E8003F3B673B6F23F060
:10387C000103C7F8B4307B681B681433D7F8B42045
:10388C00C7F88020FB67F96FD7F8802041E8002348
:10389C00BB67BB6F002BE1D17B681B6814333B66A5
:1038AC003B6E53E8003FFB65FB6D23F04003C7F80C
:1038BC00B0307B681B681433D7F8B020FA66BB664F
:1038CC00B96EFA6E41E800237B667B6E002BE3D168
:1038DC007B68202283F842207B6800221A637B6875
:1038EC001B680C33FB64FB6C53E8003FBB64BB6C84
:1038FC0023F01003C7F8AC307B681B680C33D7F887
:10390C00AC20BA657B65796DBA6D41E800233B65E7
:10391C003B6D002BE3D17B68DB6B1846FEF767FE33
:10392C007B6802225A637B689A8D7B68DB8D9BB225
:10393C00D31A9BB21946786800F0B6F89CE000BF29
:10394C00413C00087B689A8D7B68DB8D9BB2D31A57
:10395C00A7F8CE307B68DB8D9BB2002B00F08E80FD
:10396C00B7F8CE30002B00F089807B681B680C33D5
:10397C00BB63BB6B53E8003F7B637B6B23F490739F
:10398C00C7F8C8307B681B680C33D7F8C8207A643A
:10399C003B64396C7A6C41E80023FB63FB6B002BB6
:1039AC00E3D17B681B6814337B627B6A53E8003F6E
:1039BC003B623B6A23F00103C7F8C4307B681B6889
:1039CC001433D7F8C4203A63FB62F96A3A6B41E8C6
:1039DC000023BB62BB6A002BE3D17B68202283F8F7
:1039EC0042207B6800221A637B681B680C333B61A6
:1039FC003B6953E8003FFB60FB6823F01003C7F8FA
:103A0C00C0307B681B680C33D7F8C020FA61BB61EF
:103A1C00B969FA6941E800237B617B69002BE3D12A
:103A2C007B6802225A63B7F8CE301946786800F0EA
:103A3C003BF823E0D7F8E43003F08003002B09D0E7
:103A4C00D7F8E03003F08003002B03D0786800F047
:103A5C0005F914E0D7F8E43003F04003002B0ED046
:103A6C00D7F8E03003F04003002B08D0786800F062
:103A7C0044F904E000BF02E000BF00E000BFE837FB
:103A8C00BD4680BD80B483B000AF786000BF0C37FA
:103A9C00BD4680BC704780B483B000AF786000BF77
:103AAC000C37BD4680BC704780B483B000AF7860E3
:103ABC000B467B8000BF0C37BD4680BC704780B581
:103ACC0086B000AFF860B9603B601346FB713BE019
:103ADC003B6AB3F1FF3F37D0FEF74EFC02463B6822
:103AEC00D31A3A6A9A4202D33B6A002B01D10323C0
:103AFC003AE0FB681B68DB6803F00403002B23D05F
:103B0C00BB68802B20D0BB68402B1DD0FB681B688A
:103B1C001B6803F00803082B16D100237B61FB689C
:103B2C001B681B687B61FB681B685B687B617B693E
:103B3C00F86800F01DF8FB6808225A64FB68002244
:103B4C0083F8402001230FE0FB681B681A68BB68F0
:103B5C001340BA689A420CBF01230023DBB21A4609
:103B6C00FB799A42B4D0002318461837BD4680BD65
:103B7C0080B495B000AF78607B681B680C337B63B6
:103B8C007B6B53E8003F3B633B6B23F49073FB640C
:103B9C007B681B680C33FA6C3A64FB63F96B3A6C08
:103BAC0041E80023BB63BB6B002BE5D17B681B6832
:103BBC0014333B623B6A53E8003FFB61FB6923F023
:103BCC000103BB647B681B681433BA6CFA62BB627A
:103BDC00B96AFA6A41E800237B627B6A002BE5D163
:103BEC007B681B6B012B19D17B681B680C33FB604A
:103BFC00FB6853E8003FBB60BB6823F010037B6499
:103C0C007B681B680C337A6CBA617B617969BA6921
:103C1C0041E800233B613B69002BE5D17B68202206
:103C2C0083F842207B6800221A6300BF5437BD46DC
:103C3C0080BC704780B584B000AF78607B685B6AED
:103C4C00FB60FB680022DA85FB680022DA84F868E6
:103C5C00FFF721FF00BF1037BD4680BD80B485B093
:103C6C0000AF78607B6893F84130DBB2212B3ED1FA
:103C7C007B689B68B3F5805F14D17B681B69002B54
:103C8C0010D17B681B6AFB60FB681B881A467B683B
:103C9C001B68C2F308025A607B681B6A9A1C7B681B
:103CAC001A6208E07B681B6A591C7A6811621A78E0
:103CBC007B681B685A607B68DB8C9BB2013B9BB2B8
:103CCC007A681946D184002B0FD17B681B68DA689F
:103CDC007B681B6822F08002DA607B681B68DA68FC
:103CEC007B681B6842F04002DA60002300E002238C
:103CFC0018461437BD4680BC704780B582B000AF03
:103D0C0078607B681B68DA687B681B6822F040026D
:103D1C00DA607B68202283F841207868FFF7B2FED6
:103D2C00002318460837BD4680BD80B58CB000AF67
:103D3C0078607B6893F84230DBB2222B40F0AE8087
:103D4C007B689B68B3F5805F17D17B681B69002B80
:103D5C0013D10023FB627B689B6ABB627B681B6888
:103D6C005B689BB2C3F308039AB2BB6A1A807B6888
:103D7C009B6A9A1C7B689A6226E07B689B6AFB6252
:103D8C000023BB627B689B68B3F5805F07D07B68C0
:103D9C009B68002B0AD17B681B69002B06D17B68C2
:103DAC001B685B68DAB2FB6A1A7008E07B681B68F8
:103DBC005B68DBB203F07F03DAB2FB6A1A707B68D4
:103DCC009B6A5A1C7B689A627B68DB8D9BB2013BB9
:103DDC009BB27A681946D185002B5DD17B681B6834
:103DEC00DA687B681B6822F02002DA607B681B684B
:103DFC00DA687B681B6822F48072DA607B681B6867
:103E0C005A697B681B6822F001025A617B68202288
:103E1C0083F842207B6800225A637B681B6B012B62
:103E2C0035D17B6800221A637B681B680C337B617D
:103E3C007B6953E8003F3B613B6923F010037B62D5
:103E4C007B681B680C337A6A3A62FB61F9693A6ADF
:103E5C0041E80023BB61BB69002BE5D17B681B6883
:103E6C001B6803F01003102B0AD10023FB607B6846
:103E7C001B681B68FB607B681B685B68FB60FB68EE
:103E8C007B689B8D19467868FFF70EFE02E0786818
:103E9C00FCF781FE002302E0002300E00223184619
:103EAC003037BD4680BD000080B584B000AF78606F
:103EBC007B681B681B6923F440517B68DA687B685C
:103ECC001B680A431A617B689A687B681B691A43F2
:103EDC007B685B691343BB607B681B68DB6823F4FE
:103EEC00B05323F00C037A681268B9680B43D360A3
:103EFC007B681B685B6923F440717B689A697B68FB
:103F0C001B680A435A617B681B682C4A934203D195
:103F1C00FFF782F9F86002E0FFF76AF9F860FA68D7
:103F2C0013469B0013449A001A447B685B689B0001
:103F3C00B2FBF3F3224AA2FB03235B091901FA68D3
:103F4C0013469B0013449A001A447B685B689B00E1
:103F5C00B2FBF3F21A4BA3FB02035B09642000FBD8
:103F6C0003F3D31A1B013233154AA2FB03235B095B
:103F7C0003F0F0031944FA6813469B0013449A00AB
:103F8C001A447B685B689B00B2FBF3F20C4BA3FBFF
:103F9C0002035B09642000FB03F3D31A1B013233C9
:103FAC00074AA2FB03235B0903F00F027B681B6823
:103FBC000A449A6000BF1037BD4680BD00380140EE
:103FCC001F85EB5180B483B000AF78607B68002B09
:103FDC00B8BF5B4218460C37BD4680BC704700002A
:103FEC0080B582B000AF78604FF000017868FCF7C4
:103FFC0067FB0346002B02D04FF07E5300E0024BD0
:10400C0018460837BD4680BD000080BF80B582B021
:10401C0000AF78607B68002B02D14FF000031EE0EC
:10402C007B689B6810491846FCF754FB0346002B31
:10403C0002D07B689B6812E07B681B78022B0AD04D
:10404C00022B0ADC002B02D0012B02D005E0074B1F
:10405C0005E0074B03E0074B01E04FF00003184667
:10406C000837BD4680BD00BF6F12833AEC51383E15
:10407C00295C0F3E6666E63E80B586B000AF786080
:10408C007B68002B01D1002380E07B68DB68002B70
:10409C0002D07B68DB6879E07B681B78032B6FD0E0
:1040AC00032B72DC012B02DC002B03DA6DE0022BFC
:1040BC002ED06AE07868FFF7A9FF786135497869F6
:1040CC00FCF7EAFA0346002B01D0324B7B617B688C
:1040DC005B681846FFF776FFF860F868FCF7EAF8BB
:1040EC00034679691846FCF7EDF903464FF07C510D
:1040FC001846FCF72BF803461846FCF7F5FA03466E
:10410C003B613B69132B01D814233B613B693DE0B8
:10411C007868FFF77BFF78611F497869FCF7BCFA78
:10412C000346002B01D01C4B7B617B685B681846F7
:10413C00FFF748FFF860F868FCF7BCF8034617492E
:10414C001846FCF70BF9034679691846FCF7BAF9DF
:10415C00034613491846FCF701F903464FF07C510E
:10416C001846FBF7F3FF03461846FCF7BDFA034667
:10417C003B613B69132B01D814233B613B6905E080
:10418C007B685B6823EAE37300E00023184618376A
:10419C00BD4680BD0AD7233CCDCC4C3D35FA8E3C78
:1041AC0000007A4480B500AF4FF000024FF00001E0
:1041BC004FF00000FCF70BFD00BF80BD80B582B056
:1041CC0000AF0346FB710D4B1B78042B12D00B4B2D
:1041DC001B78032B0ED0094AFB795370074B042232
:1041EC001A70074B00221A70064B00221A70FFF748
:1041FC00D9FF00E000BF0837BD4680BDF0010020AC
:10420C00100200201102002080B483B000AF0346DE
:10421C00FB71044B01221A77012318460C37BD465B
:10422C0080BC7047F001002080B582B000AFFEF773
:10423C00A3F878600B4B1B687A68D31AC72B01D88C
:10424C0000230AE0084B01221A770020FCF70EFC31
:10425C00FCF7D3FCFCF7D8FC012318460837BD4605
:10426C0080BD00BF14020020F001002080B500AF1B
:10427C004FF000024FF000014FF00000FCF7A7FCDC
:10428C000F4B00221A700F4B00221A700E4B9A889B
:10429C000E4B1B889A4205D20B4B9B8801339AB26A
:1042AC00094B9A80084B9A88084B1B889A4205D375
:1042BC00054B03221A70044B04229A7000BF80BD78
:1042CC001002002011020020F00100201400002038
:1042DC0090B585B000AF7860FEF74EF8F8607B685B
:1042EC00002B03D10620FFF769FF82E0424B01222D
:1042FC001A70424B00221A707B681A78404B9A70E5
:10430C003F4AFB6893603E4B0022DA607868FFF707
:10431C00B3FE03463A4A1361394B4FF000029A61DF
:10432C007B681B78022B3CD0022B5FDC002B02D06D
:10433C00012B1BD05AE07B685B681846FBF7BAFF71
:10434C0003461846FFF74CFE04467868FFF75EFEFE
:10435C00034619462046FCF701F803464FF00002CD
:10436C0019464FF00000FCF732FC42E07B685B68BA
:10437C001846FBF79FFF03461846FFF731FE04462D
:10438C007868FFF743FE034619462046FBF7E6FF25
:10439C0003464FF000024FF000011846FCF717FCE3
:1043AC0027E07B685B681846FBF784FF03461549DA
:1043BC001846FBF7D3FF0346BB60114B4FF00002CE
:1043CC005A61B868FFF70CFE04467868FFF71EFECA
:1043DC00034619462046FBF7C1FF03461A464FF029
:1043EC0000014FF00000FCF7F2FB02E0FFF7DAFEF1
:1043FC0000BF1437BD4690BD1002002011020020F2
:10440C00F001002035FA8E3C80B584B000AF7860A6
:10441C0039607B68002B03D10620FFF7CFFE44E008
:10442C00234B1B693A689A4202D3FFF71FFF3CE00B
:10443C007868FFF7EBFDF8607B681B78002B16D1D2
:10444C007B685B681846FBF735FF03461846FFF799
:10445C00C7FD0346F9681846FBF780FF03464FF08B
:10446C00000219464FF00000FCF7B1FB1DE07B6821
:10447C001B78012B16D17B685B681846FBF71AFF7B
:10448C0003461846FFF7ACFD0346F9681846FBF7E0
:10449C0065FF03464FF000024FF000011846FCF791
:1044AC0096FB02E00620FFF789FE1037BD4680BD63
:1044BC00F001002080B584B000AF786039607B6873
:1044CC00002B03D10620FFF779FE2BE0174B1B695D
:1044DC003A689A4202D3FFF7C9FE23E07868FFF7E7
:1044EC0095FDF8607B685B681846FBF7E3FE0346B6
:1044FC000F491846FBF732FF0346BB600B4B4FF0DE
:10450C0000029A61B868FFF76BFD0346F96818461C
:10451C00FBF724FF03461A464FF000014FF0000052
:10452C00FCF755FB1037BD4680BD00BFF0010020E5
:10453C0035FA8E3C80B584B000AF334B9A88334B40
:10454C001B889A4205D3FFF72DFE2F4B03221A70BE
:10455C0056E02F4B1A682C4B9B881B011344FB60B5
:10456C002C4B1B78002B06D1F868FFF7B1FE264BBD
:10457C001B78042B41D0FDF7FFFEB860224B9B68E3
:10458C00BA68D31A7B60204A7B68D360FB681A78C0
:10459C001D4B9A70FB681B78042B2AD801A252F889
:1045AC0023F000BFC5450008C5450008CF450008ED
:1045BC00D9450008ED4500087968F868FFF724FF35
:1045CC001EE07968F868FFF775FF19E0FFF7EAFD60
:1045DC000D4B1B697A689A4211D3FFF747FE0EE028
:1045EC00FFF7E0FD084B03221A700A4B00221A70E9
:1045FC0006E00620FFF7E2FD02E000BF00E000BF8E
:10460C001037BD4680BD00BFF00100201400002013
:10461C00100000201002002080B500AFFDF7ACFEAA
:10462C0003461B4A13601B4B1B4A1A601B4B0C2284
:10463C001A801B4B00221A701A4B00221A701A4B4C
:10464C0000221A70184B00225A70174B04229A70D1
:10465C00154B00229A80114B1A88134BDA80124B9F
:10466C0000229A60104B0022DA600F4B00221A6174
:10467C000D4B4FF000025A610B4B4FF000029A6148
:10468C00094B00221A7700F011F800BF80BD00BF63
:10469C0014020020100000205848000814000020CC
:1046AC001002002011020020F001002080B500AFA4
:1046BC001C4B1D4A1A601D4B0C221A801C4B0022ED
:1046CC001A701C4B00221A701B4B01221A701A4BC9
:1046DC0000225A70184B04229A70174B00229A80B1
:1046EC00124B1A88144BDA80134B00229A60124B2F
:1046FC000022DA60104B00221A610F4B4FF00002BF
:10470C005A610D4B4FF000029A610020FCF789FAB8
:10471C004FF000024FF000014FF00000FCF757FA89
:10472C0000BF80BD10000020584800081400002075
:10473C001002002011020020F001002080B500AF13
:10474C00184B1B78002B26D0164B1B78032B03D051
:10475C00144B1B78042B02D1FFF724FD20E0114BE6
:10476C001B78012B0AD1FFF75FFD0346002B14D0F9
:10477C000C4B02221A700C4B00221A70094B1B783E
:10478C00022B0DD10120FFF73FFD0346002B06D075
:10479C00FFF7D0FE04E000BF02E000BF00E000BF66
:1047AC0080BD00BFF001002010020020034602442F
:1047BC00934200D1704703F8011BF9E770B500264E
:1047CC000C4D0D4C641BA410A64209D100F01AF834
:1047DC0000260A4D0A4C641BA410A64205D170BDDC
:1047EC0055F8043B98470136EEE755F8043B9847DB
:1047FC000136F2E718490008184900081849000862
:10480C001C490008F8B500BFF8BC08BC9E467047B0
:0C481C00F8B500BFF8BC08BC9E46704711
:10482800010203040000000000000000010203046C
:10483800060708090000000001020304020304053A
:10484800060708090A0B0C0D0E0F101001020000D4
:1048580000000000E40C0000EC51383E00000000AD
:10486800020000005A0000006666E63E00000000F4
:1048780000000000E8030000EC51383E0000000092
:10488800020000005A0000006666E63E00000000D4
:1048980000000000E8030000EC51383E0000000072
:1048A8000000000018FCFFFFEC51383E000000003B
:1048B80000000000F4010000EC51383E0000000048
:1048C80001000000A2FEFFFF295C0F3E000000006F
:1048D80000000000DC050000EC51383E000000003C
:1048E8000100000090010000295C0F3E000000005C
:1048F80000000000BC020000EC51383E000000003F
:10490800040000000000000000000000000000009B
:044918003101000861
:04491C000D01000881
:104920000101010100127A001000000001000000E6
:08493000584800080C000000CB
:040000050800228944
:00000001FF
